:100000000C9434000C9451000C9451000C947B001F
:100010000C94B5000C9451000C9451000C945100B8
:100020000C9451000C9451000C9451000C9451000C
:100030000C9451000C9451000C9451000C945100FC
:100040000C9451000C9451000C9451000C945100EC
:100050000C9451000C9451000C9451000C945100DC
:100060000C9451000C94510011241FBECFEFD8E026
:10007000DEBFCDBF11E0A0E0B1E0EAE2F2E002C0F5
:1000800005900D92AC30B107D9F721E0ACE0B1E0BA
:1000900001C01D92AC30B207E1F70E9469000C94D8
:1000A00013010C940000E8E6F0E080818160808319
:1000B000EBE6F0E080818F6080830895E8E6F0E071
:1000C000808182608083ECE6F0E0808180638083C1
:1000D0000895F89485B18F6085B914B888B18063AC
:1000E00088B98FE087B90E9453000E945E000E9489
:1000F000F4007894FFCF1F920F920FB60F92112445
:100100002F933F934F935F936F937F938F939F931F
:10011000AF93BF93EF93FF93189904C080E091E0F1
:100120000E94E300199904C082E091E00E94E3007C
:100130001A9904C084E091E00E94E3001B9904C076
:1001400086E091E00E94E300FF91EF91BF91AF91B3
:100150009F918F917F916F915F914F913F912F91DF
:100160000F900FBE0F901F9018951F920F920FB611
:100170000F9211242F933F934F935F936F937F932D
:100180008F939F93AF93BF93EF93FF93349904C0E2
:1001900088E091E00E94E300359904C08AE091E094
:1001A0000E94E300FF91EF91BF91AF919F918F91DA
:1001B0007F916F915F914F913F912F910F900FBE63
:1001C0000F901F901895AC0120E007C09091C000DF
:1001D00095FFFCCF3093C6002F5FFA01E20FF11DAF
:1001E00030813111F3CF08958AB18E7F8AB98AB1F7
:1001F00082608AB9E0ECF0E01082808182608083C6
:10020000E1ECF0E01082808188698083E2ECF0E02C
:1002100010828081866080838FEC90E09093C5008F
:0A0220008093C4000895F894FFCF06
:0C022A0030003100320033003400350099
:00000001FF
